{
  "contractName": "PharmaSupplyChain",
  "abi": [
    {
      "inputs": [],
      "payable": true,
      "stateMutability": "payable",
      "type": "constructor"
    },
    {
      "anonymous": false,
      "inputs": [
        {
          "indexed": false,
          "internalType": "uint256",
          "name": "upc",
          "type": "uint256"
        }
      ],
      "name": "ArticleAcquired",
      "type": "event"
    },
    {
      "anonymous": false,
      "inputs": [
        {
          "indexed": false,
          "internalType": "uint256",
          "name": "upc",
          "type": "uint256"
        }
      ],
      "name": "ArticleBatchAcquired",
      "type": "event"
    },
    {
      "anonymous": false,
      "inputs": [
        {
          "indexed": false,
          "internalType": "uint256",
          "name": "upc",
          "type": "uint256"
        }
      ],
      "name": "ArticleBatchPrepared",
      "type": "event"
    },
    {
      "anonymous": false,
      "inputs": [
        {
          "indexed": false,
          "internalType": "uint256",
          "name": "upc",
          "type": "uint256"
        }
      ],
      "name": "ArticleBatchReceived",
      "type": "event"
    },
    {
      "anonymous": false,
      "inputs": [
        {
          "indexed": false,
          "internalType": "uint256",
          "name": "upc",
          "type": "uint256"
        }
      ],
      "name": "ArticleBatchSent",
      "type": "event"
    },
    {
      "anonymous": false,
      "inputs": [
        {
          "indexed": false,
          "internalType": "uint256",
          "name": "upc",
          "type": "uint256"
        }
      ],
      "name": "ArticleBatchSold",
      "type": "event"
    },
    {
      "anonymous": false,
      "inputs": [
        {
          "indexed": false,
          "internalType": "uint256",
          "name": "upc",
          "type": "uint256"
        }
      ],
      "name": "ArticlePrepared",
      "type": "event"
    },
    {
      "anonymous": false,
      "inputs": [
        {
          "indexed": false,
          "internalType": "uint256",
          "name": "upc",
          "type": "uint256"
        }
      ],
      "name": "ArticleProducedByProducer",
      "type": "event"
    },
    {
      "anonymous": false,
      "inputs": [
        {
          "indexed": false,
          "internalType": "uint256",
          "name": "upc",
          "type": "uint256"
        }
      ],
      "name": "ArticleReceived",
      "type": "event"
    },
    {
      "anonymous": false,
      "inputs": [
        {
          "indexed": false,
          "internalType": "uint256",
          "name": "upc",
          "type": "uint256"
        }
      ],
      "name": "ArticleSent",
      "type": "event"
    },
    {
      "anonymous": false,
      "inputs": [
        {
          "indexed": false,
          "internalType": "uint256",
          "name": "upc",
          "type": "uint256"
        }
      ],
      "name": "ArticleSold",
      "type": "event"
    },
    {
      "anonymous": false,
      "inputs": [
        {
          "indexed": true,
          "internalType": "address",
          "name": "account",
          "type": "address"
        }
      ],
      "name": "ClientAdded",
      "type": "event"
    },
    {
      "anonymous": false,
      "inputs": [
        {
          "indexed": true,
          "internalType": "address",
          "name": "account",
          "type": "address"
        }
      ],
      "name": "ClientRemoved",
      "type": "event"
    },
    {
      "anonymous": false,
      "inputs": [
        {
          "indexed": true,
          "internalType": "address",
          "name": "account",
          "type": "address"
        }
      ],
      "name": "DistributorAdded",
      "type": "event"
    },
    {
      "anonymous": false,
      "inputs": [
        {
          "indexed": true,
          "internalType": "address",
          "name": "account",
          "type": "address"
        }
      ],
      "name": "DistributorRemoved",
      "type": "event"
    },
    {
      "anonymous": false,
      "inputs": [
        {
          "indexed": false,
          "internalType": "uint256",
          "name": "upc",
          "type": "uint256"
        }
      ],
      "name": "ForSale",
      "type": "event"
    },
    {
      "anonymous": false,
      "inputs": [
        {
          "indexed": false,
          "internalType": "uint256",
          "name": "upc",
          "type": "uint256"
        }
      ],
      "name": "Made",
      "type": "event"
    },
    {
      "anonymous": false,
      "inputs": [
        {
          "indexed": false,
          "internalType": "uint256",
          "name": "upc",
          "type": "uint256"
        }
      ],
      "name": "Packed",
      "type": "event"
    },
    {
      "anonymous": false,
      "inputs": [
        {
          "indexed": false,
          "internalType": "uint256",
          "name": "upc",
          "type": "uint256"
        }
      ],
      "name": "Purchased",
      "type": "event"
    },
    {
      "anonymous": false,
      "inputs": [
        {
          "indexed": false,
          "internalType": "uint256",
          "name": "upc",
          "type": "uint256"
        }
      ],
      "name": "Received",
      "type": "event"
    },
    {
      "anonymous": false,
      "inputs": [
        {
          "indexed": false,
          "internalType": "uint256",
          "name": "upc",
          "type": "uint256"
        }
      ],
      "name": "Shipped",
      "type": "event"
    },
    {
      "anonymous": false,
      "inputs": [
        {
          "indexed": false,
          "internalType": "uint256",
          "name": "upc",
          "type": "uint256"
        }
      ],
      "name": "Sold",
      "type": "event"
    },
    {
      "anonymous": false,
      "inputs": [
        {
          "indexed": false,
          "internalType": "uint256",
          "name": "upc",
          "type": "uint256"
        }
      ],
      "name": "evArticleOnSaleByDistributor",
      "type": "event"
    },
    {
      "anonymous": false,
      "inputs": [
        {
          "indexed": false,
          "internalType": "uint256",
          "name": "upc",
          "type": "uint256"
        }
      ],
      "name": "evArticleOnSaleByProducer",
      "type": "event"
    },
    {
      "anonymous": false,
      "inputs": [
        {
          "indexed": false,
          "internalType": "uint256",
          "name": "upc",
          "type": "uint256"
        }
      ],
      "name": "evArticleOrderedByClient",
      "type": "event"
    },
    {
      "anonymous": false,
      "inputs": [
        {
          "indexed": false,
          "internalType": "uint256",
          "name": "upc",
          "type": "uint256"
        }
      ],
      "name": "evArticleOrderedByDistributor",
      "type": "event"
    },
    {
      "anonymous": false,
      "inputs": [
        {
          "indexed": false,
          "internalType": "uint256",
          "name": "upc",
          "type": "uint256"
        }
      ],
      "name": "evArticleProducedByProducer",
      "type": "event"
    },
    {
      "anonymous": false,
      "inputs": [
        {
          "indexed": false,
          "internalType": "uint256",
          "name": "upc",
          "type": "uint256"
        }
      ],
      "name": "evArticleReceivedByClient",
      "type": "event"
    },
    {
      "anonymous": false,
      "inputs": [
        {
          "indexed": false,
          "internalType": "uint256",
          "name": "upc",
          "type": "uint256"
        }
      ],
      "name": "evArticleSentToDistributor",
      "type": "event"
    },
    {
      "anonymous": false,
      "inputs": [
        {
          "indexed": true,
          "internalType": "address",
          "name": "account",
          "type": "address"
        }
      ],
      "name": "producerAdded",
      "type": "event"
    },
    {
      "anonymous": false,
      "inputs": [
        {
          "indexed": true,
          "internalType": "address",
          "name": "account",
          "type": "address"
        }
      ],
      "name": "producerRemoved",
      "type": "event"
    },
    {
      "constant": false,
      "inputs": [
        {
          "internalType": "address",
          "name": "account",
          "type": "address"
        }
      ],
      "name": "addClient",
      "outputs": [],
      "payable": false,
      "stateMutability": "nonpayable",
      "type": "function"
    },
    {
      "constant": false,
      "inputs": [
        {
          "internalType": "address",
          "name": "account",
          "type": "address"
        }
      ],
      "name": "addDistributor",
      "outputs": [],
      "payable": false,
      "stateMutability": "nonpayable",
      "type": "function"
    },
    {
      "constant": false,
      "inputs": [
        {
          "internalType": "address",
          "name": "account",
          "type": "address"
        }
      ],
      "name": "addProducer",
      "outputs": [],
      "payable": false,
      "stateMutability": "nonpayable",
      "type": "function"
    },
    {
      "constant": true,
      "inputs": [
        {
          "internalType": "address",
          "name": "account",
          "type": "address"
        }
      ],
      "name": "isClient",
      "outputs": [
        {
          "internalType": "bool",
          "name": "",
          "type": "bool"
        }
      ],
      "payable": false,
      "stateMutability": "view",
      "type": "function"
    },
    {
      "constant": true,
      "inputs": [
        {
          "internalType": "address",
          "name": "account",
          "type": "address"
        }
      ],
      "name": "isDistributor",
      "outputs": [
        {
          "internalType": "bool",
          "name": "",
          "type": "bool"
        }
      ],
      "payable": false,
      "stateMutability": "view",
      "type": "function"
    },
    {
      "constant": true,
      "inputs": [
        {
          "internalType": "address",
          "name": "account",
          "type": "address"
        }
      ],
      "name": "isProducer",
      "outputs": [
        {
          "internalType": "bool",
          "name": "",
          "type": "bool"
        }
      ],
      "payable": false,
      "stateMutability": "view",
      "type": "function"
    },
    {
      "constant": false,
      "inputs": [
        {
          "internalType": "address",
          "name": "account",
          "type": "address"
        }
      ],
      "name": "renounceClient",
      "outputs": [],
      "payable": false,
      "stateMutability": "nonpayable",
      "type": "function"
    },
    {
      "constant": false,
      "inputs": [],
      "name": "renounceDistributor",
      "outputs": [],
      "payable": false,
      "stateMutability": "nonpayable",
      "type": "function"
    },
    {
      "constant": false,
      "inputs": [
        {
          "internalType": "address",
          "name": "account",
          "type": "address"
        }
      ],
      "name": "renounceProducer",
      "outputs": [],
      "payable": false,
      "stateMutability": "nonpayable",
      "type": "function"
    },
    {
      "constant": false,
      "inputs": [],
      "name": "kill",
      "outputs": [],
      "payable": false,
      "stateMutability": "nonpayable",
      "type": "function"
    },
    {
      "constant": false,
      "inputs": [
        {
          "internalType": "uint256",
          "name": "_upc",
          "type": "uint256"
        },
        {
          "internalType": "address",
          "name": "_producerID",
          "type": "address"
        },
        {
          "internalType": "string",
          "name": "_producerName",
          "type": "string"
        },
        {
          "internalType": "string",
          "name": "_producerInformation",
          "type": "string"
        },
        {
          "internalType": "string",
          "name": "_articleNotes",
          "type": "string"
        }
      ],
      "name": "produceArticleByProducer",
      "outputs": [],
      "payable": false,
      "stateMutability": "nonpayable",
      "type": "function"
    },
    {
      "constant": false,
      "inputs": [
        {
          "internalType": "uint256",
          "name": "_upc",
          "type": "uint256"
        }
      ],
      "name": "sellArticleByProducer",
      "outputs": [],
      "payable": false,
      "stateMutability": "nonpayable",
      "type": "function"
    },
    {
      "constant": false,
      "inputs": [
        {
          "internalType": "uint256",
          "name": "_upc",
          "type": "uint256"
        }
      ],
      "name": "orderArticleByDistributor",
      "outputs": [],
      "payable": false,
      "stateMutability": "nonpayable",
      "type": "function"
    },
    {
      "constant": false,
      "inputs": [
        {
          "internalType": "uint256",
          "name": "_upc",
          "type": "uint256"
        }
      ],
      "name": "sendArticleToDistributor",
      "outputs": [],
      "payable": false,
      "stateMutability": "nonpayable",
      "type": "function"
    },
    {
      "constant": false,
      "inputs": [
        {
          "internalType": "uint256",
          "name": "_upc",
          "type": "uint256"
        }
      ],
      "name": "sellArticleByDistributor",
      "outputs": [],
      "payable": false,
      "stateMutability": "nonpayable",
      "type": "function"
    },
    {
      "constant": false,
      "inputs": [
        {
          "internalType": "uint256",
          "name": "_upc",
          "type": "uint256"
        },
        {
          "internalType": "address",
          "name": "_clientID",
          "type": "address"
        }
      ],
      "name": "orderArticleByClient",
      "outputs": [],
      "payable": false,
      "stateMutability": "nonpayable",
      "type": "function"
    },
    {
      "constant": false,
      "inputs": [
        {
          "internalType": "uint256",
          "name": "_upc",
          "type": "uint256"
        }
      ],
      "name": "sendArticleToClient",
      "outputs": [],
      "payable": false,
      "stateMutability": "nonpayable",
      "type": "function"
    },
    {
      "constant": true,
      "inputs": [
        {
          "internalType": "uint256",
          "name": "_upc",
          "type": "uint256"
        }
      ],
      "name": "articleTraceProducer",
      "outputs": [
        {
          "internalType": "uint256",
          "name": "articleSKU",
          "type": "uint256"
        },
        {
          "internalType": "uint256",
          "name": "articleUPC",
          "type": "uint256"
        },
        {
          "internalType": "address",
          "name": "ownerID",
          "type": "address"
        },
        {
          "internalType": "address",
          "name": "producerID",
          "type": "address"
        },
        {
          "internalType": "string",
          "name": "producerName",
          "type": "string"
        },
        {
          "internalType": "string",
          "name": "producerInformation",
          "type": "string"
        }
      ],
      "payable": false,
      "stateMutability": "view",
      "type": "function"
    },
    {
      "constant": true,
      "inputs": [
        {
          "internalType": "uint256",
          "name": "_upc",
          "type": "uint256"
        }
      ],
      "name": "articleTraceDistributor",
      "outputs": [
        {
          "internalType": "uint256",
          "name": "articleSKU",
          "type": "uint256"
        },
        {
          "internalType": "uint256",
          "name": "articleUPC",
          "type": "uint256"
        },
        {
          "internalType": "uint256",
          "name": "articleID",
          "type": "uint256"
        },
        {
          "internalType": "string",
          "name": "articleNotes",
          "type": "string"
        },
        {
          "internalType": "enum PharmaSupplyChain.State",
          "name": "articleState",
          "type": "uint8"
        },
        {
          "internalType": "address",
          "name": "distributorID",
          "type": "address"
        },
        {
          "internalType": "address",
          "name": "clientID",
          "type": "address"
        }
      ],
      "payable": false,
      "stateMutability": "view",
      "type": "function"
    },
    {
      "constant": true,
      "inputs": [
        {
          "internalType": "uint256",
          "name": "_upc",
          "type": "uint256"
        }
      ],
      "name": "fetcharticleBufferThree",
      "outputs": [
        {
          "internalType": "uint256",
          "name": "articleSKU",
          "type": "uint256"
        },
        {
          "internalType": "uint256",
          "name": "articleUPC",
          "type": "uint256"
        },
        {
          "internalType": "uint256",
          "name": "articleID",
          "type": "uint256"
        }
      ],
      "payable": false,
      "stateMutability": "view",
      "type": "function"
    }
  ],
  "bytecode": "0x608060405262000015336200008e60201b60201c565b6200002633620000ef60201b60201c565b62000037336200015060201b60201c565b33600360006101000a81548173ffffffffffffffffffffffffffffffffffffffff021916908373ffffffffffffffffffffffffffffffffffffffff16021790555060006005819055506000600481905550620002fa565b620000a9816000620001b160201b62001ca71790919060201c565b8073ffffffffffffffffffffffffffffffffffffffff167fe31dbc85815e2b6ef09d401ea334ca809c167e8314a4261643ae6fabd97f9e8760405160405180910390a250565b6200010a816001620001b160201b62001ca71790919060201c565b8073ffffffffffffffffffffffffffffffffffffffff167fddbf200aa634dc3fb81cfd68583dd1040d1c751d335e1d86b631bde3e977fea860405160405180910390a250565b6200016b816002620001b160201b62001ca71790919060201c565b8073ffffffffffffffffffffffffffffffffffffffff167f6c713924da8f1e694559181e3497cb03c970f0f7c023d913207d0410b531741e60405160405180910390a250565b600073ffffffffffffffffffffffffffffffffffffffff168173ffffffffffffffffffffffffffffffffffffffff161415620001ec57600080fd5b620001fe82826200026760201b60201c565b156200020957600080fd5b60018260000160008373ffffffffffffffffffffffffffffffffffffffff1673ffffffffffffffffffffffffffffffffffffffff16815260200190815260200160002060006101000a81548160ff0219169083151502179055505050565b60008073ffffffffffffffffffffffffffffffffffffffff168273ffffffffffffffffffffffffffffffffffffffff161415620002a357600080fd5b8260000160008373ffffffffffffffffffffffffffffffffffffffff1673ffffffffffffffffffffffffffffffffffffffff16815260200190815260200160002060009054906101000a900460ff16905092915050565b611ff3806200030a6000396000f3fe608060405234801561001057600080fd5b506004361061012c5760003560e01c80638f0c86fa116100ad578063c6e89a0a11610071578063c6e89a0a146108c2578063ddf80166146108f0578063e52a8a9214610934578063eee2d2c314610962578063f5521022146109a65761012c565b80638f0c86fa14610351578063aa7d2897146103ad578063aad2d9b6146104e4578063b792aaff1461066b578063bc2d118a1461087e5761012c565b8063644241db116100f4578063644241db1461024b5780636662bb7b146102555780637250e2241461028357806384b7964f146102c75780638aaadb41146103235761012c565b80632756af5a146101315780632d407b9d1461017f57806341c0e1b5146101ad57806343928cfd146101b757806360de3f18146101fb575b600080fd5b61017d6004803603604081101561014757600080fd5b8101908080359060200190929190803573ffffffffffffffffffffffffffffffffffffffff169060200190929190505050610a02565b005b6101ab6004803603602081101561019557600080fd5b8101908080359060200190929190505050610b79565b005b6101b5610c45565b005b6101f9600480360360208110156101cd57600080fd5b81019080803573ffffffffffffffffffffffffffffffffffffffff169060200190929190505050610cd8565b005b6102276004803603602081101561021157600080fd5b8101908080359060200190929190505050610cf6565b60405180848152602001838152602001828152602001935050505060405180910390f35b610253610d4d565b005b6102816004803603602081101561026b57600080fd5b8101908080359060200190929190505050610d58565b005b6102c56004803603602081101561029957600080fd5b81019080803573ffffffffffffffffffffffffffffffffffffffff169060200190929190505050610edd565b005b610309600480360360208110156102dd57600080fd5b81019080803573ffffffffffffffffffffffffffffffffffffffff169060200190929190505050610efb565b604051808215151515815260200191505060405180910390f35b61034f6004803603602081101561033957600080fd5b8101908080359060200190929190505050610f18565b005b6103936004803603602081101561036757600080fd5b81019080803573ffffffffffffffffffffffffffffffffffffffff169060200190929190505050610fe4565b604051808215151515815260200191505060405180910390f35b6103d9600480360360208110156103c357600080fd5b8101908080359060200190929190505050611001565b60405180888152602001878152602001868152602001806020018560068111156103ff57fe5b60ff1681526020018473ffffffffffffffffffffffffffffffffffffffff1673ffffffffffffffffffffffffffffffffffffffff1681526020018373ffffffffffffffffffffffffffffffffffffffff1673ffffffffffffffffffffffffffffffffffffffff168152602001828103825286818151815260200191508051906020019080838360005b838110156104a3578082015181840152602081019050610488565b50505050905090810190601f1680156104d05780820380516001836020036101000a031916815260200191505b509850505050505050505060405180910390f35b610510600480360360208110156104fa57600080fd5b81019080803590602001909291905050506111af565b604051808781526020018681526020018573ffffffffffffffffffffffffffffffffffffffff1673ffffffffffffffffffffffffffffffffffffffff1681526020018473ffffffffffffffffffffffffffffffffffffffff1673ffffffffffffffffffffffffffffffffffffffff1681526020018060200180602001838103835285818151815260200191508051906020019080838360005b838110156105c45780820151818401526020810190506105a9565b50505050905090810190601f1680156105f15780820380516001836020036101000a031916815260200191505b50838103825284818151815260200191508051906020019080838360005b8381101561062a57808201518184015260208101905061060f565b50505050905090810190601f1680156106575780820380516001836020036101000a031916815260200191505b509850505050505050505060405180910390f35b61087c600480360360a081101561068157600080fd5b8101908080359060200190929190803573ffffffffffffffffffffffffffffffffffffffff169060200190929190803590602001906401000000008111156106c857600080fd5b8201836020820111156106da57600080fd5b803590602001918460018302840111640100000000831117156106fc57600080fd5b91908080601f016020809104026020016040519081016040528093929190818152602001838380828437600081840152601f19601f8201169050808301925050505050505091929192908035906020019064010000000081111561075f57600080fd5b82018360208201111561077157600080fd5b8035906020019184600183028401116401000000008311171561079357600080fd5b91908080601f016020809104026020016040519081016040528093929190818152602001838380828437600081840152601f19601f820116905080830192505050505050509192919290803590602001906401000000008111156107f657600080fd5b82018360208201111561080857600080fd5b8035906020019184600183028401116401000000008311171561082a57600080fd5b91908080601f016020809104026020016040519081016040528093929190818152602001838380828437600081840152601f19601f8201169050808301925050505050505091929192905050506113cd565b005b6108c06004803603602081101561089457600080fd5b81019080803573ffffffffffffffffffffffffffffffffffffffff169060200190929190505050611754565b005b6108ee600480360360208110156108d857600080fd5b8101908080359060200190929190505050611760565b005b6109326004803603602081101561090657600080fd5b81019080803573ffffffffffffffffffffffffffffffffffffffff16906020019092919050505061182c565b005b6109606004803603602081101561094a57600080fd5b810190808035906020019092919050505061184a565b005b6109a46004803603602081101561097857600080fd5b81019080803573ffffffffffffffffffffffffffffffffffffffff1690602001909291905050506119d0565b005b6109e8600480360360208110156109bc57600080fd5b81019080803573ffffffffffffffffffffffffffffffffffffffff1690602001909291905050506119dc565b604051808215151515815260200191505060405180910390f35b8160046006811115610a1057fe5b6006600083815260200190815260200160002060080160009054906101000a900460ff166006811115610a3f57fe5b14610a4957600080fd5b610a5233610efb565b610a5b57600080fd5b816006600085815260200190815260200160002060020160006101000a81548173ffffffffffffffffffffffffffffffffffffffff021916908373ffffffffffffffffffffffffffffffffffffffff1602179055508160066000858152602001908152602001600020600a0160006101000a81548173ffffffffffffffffffffffffffffffffffffffff021916908373ffffffffffffffffffffffffffffffffffffffff16021790555060056006600085815260200190815260200160002060080160006101000a81548160ff02191690836006811115610b3857fe5b02179055507f5e4e4e01c58ff1851b79c7b4b4c7ad142d234cb1e7b8070118d0b138165b5ca4836040518082815260200191505060405180910390a1505050565b8060036006811115610b8757fe5b6006600083815260200190815260200160002060080160009054906101000a900460ff166006811115610bb657fe5b14610bc057600080fd5b610bc933610fe4565b610bd257600080fd5b60046006600084815260200190815260200160002060080160006101000a81548160ff02191690836006811115610c0557fe5b02179055507fb64fb9277c41a20cb1dcdb661c82cbcb2ff827a1cbb39792192fc8ad2164333b826040518082815260200191505060405180910390a15050565b600360009054906101000a900473ffffffffffffffffffffffffffffffffffffffff1673ffffffffffffffffffffffffffffffffffffffff163373ffffffffffffffffffffffffffffffffffffffff161415610cd657600360009054906101000a900473ffffffffffffffffffffffffffffffffffffffff1673ffffffffffffffffffffffffffffffffffffffff16ff5b565b610ce133610efb565b610cea57600080fd5b610cf3816119f9565b50565b60008060006006600085815260200190815260200160002060000154600660008681526020019081526020016000206001015460066000878152602001908152602001600020600601549250925092509193909250565b610d5633611a53565b565b8060056006811115610d6657fe5b6006600083815260200190815260200160002060080160009054906101000a900460ff166006811115610d9557fe5b14610d9f57600080fd5b610da833610fe4565b610db157600080fd5b3373ffffffffffffffffffffffffffffffffffffffff166006600084815260200190815260200160002060080160019054906101000a900473ffffffffffffffffffffffffffffffffffffffff1673ffffffffffffffffffffffffffffffffffffffff1614610e6b576040517f08c379a000000000000000000000000000000000000000000000000000000000815260040180806020018281038252602e815260200180611f91602e913960400191505060405180910390fd5b600680600084815260200190815260200160002060080160006101000a81548160ff02191690836006811115610e9d57fe5b02179055507f7d2400cdbb38ee901250a884680d5f6fdf952d305c43140975570c2fee0ce002826040518082815260200191505060405180910390a15050565b610ee633610fe4565b610eef57600080fd5b610ef881611aad565b50565b6000610f11826002611b0790919063ffffffff16565b9050919050565b8060016006811115610f2657fe5b6006600083815260200190815260200160002060080160009054906101000a900460ff166006811115610f5557fe5b14610f5f57600080fd5b610f6833610fe4565b610f7157600080fd5b60026006600084815260200190815260200160002060080160006101000a81548160ff02191690836006811115610fa457fe5b02179055507f6cc791ad27f84e57006667e9ae031a7bab3c6e55e9d49a8bccf7ab96b9a22f17826040518082815260200191505060405180910390a15050565b6000610ffa826001611b0790919063ffffffff16565b9050919050565b6000806000606060008060006006600089815260200190815260200160002060000154600660008a815260200190815260200160002060010154600660008b815260200190815260200160002060060154600660008c8152602001908152602001600020600701600660008d815260200190815260200160002060080160009054906101000a900460ff16600660008e815260200190815260200160002060080160019054906101000a900473ffffffffffffffffffffffffffffffffffffffff16600660008f8152602001908152602001600020600a0160009054906101000a900473ffffffffffffffffffffffffffffffffffffffff16838054600181600116156101000203166002900480601f01602080910402602001604051908101604052809291908181526020018280546001816001161561010002031660029004801561118f5780601f106111645761010080835404028352916020019161118f565b820191906000526020600020905b81548152906001019060200180831161117257829003601f168201915b505050505093509650965096509650965096509650919395979092949650565b60008060008060608060066000888152602001908152602001600020600001546006600089815260200190815260200160002060010154600660008a815260200190815260200160002060020160009054906101000a900473ffffffffffffffffffffffffffffffffffffffff16600660008b815260200190815260200160002060030160009054906101000a900473ffffffffffffffffffffffffffffffffffffffff16600660008c8152602001908152602001600020600401600660008d8152602001908152602001600020600501818054600181600116156101000203166002900480601f0160208091040260200160405190810160405280929190818152602001828054600181600116156101000203166002900480156113155780601f106112ea57610100808354040283529160200191611315565b820191906000526020600020905b8154815290600101906020018083116112f857829003601f168201915b50505050509150808054600181600116156101000203166002900480601f0160208091040260200160405190810160405280929190818152602001828054600181600116156101000203166002900480156113b15780601f10611386576101008083540402835291602001916113b1565b820191906000526020600020905b81548152906001019060200180831161139457829003601f168201915b5050505050905095509550955095509550955091939550919395565b6113d6336119dc565b6113df57600080fd5b6113e7611dfe565b60405180610180016040528060016005540181526020018781526020018673ffffffffffffffffffffffffffffffffffffffff1681526020018673ffffffffffffffffffffffffffffffffffffffff168152602001858152602001848152602001876005540181526020018381526020016000600681111561146557fe5b8152602001600073ffffffffffffffffffffffffffffffffffffffff1681526020016040518060400160405280600181526020017f30000000000000000000000000000000000000000000000000000000000000008152508152602001600073ffffffffffffffffffffffffffffffffffffffff1681525090508060066000888152602001908152602001600020600082015181600001556020820151816001015560408201518160020160006101000a81548173ffffffffffffffffffffffffffffffffffffffff021916908373ffffffffffffffffffffffffffffffffffffffff16021790555060608201518160030160006101000a81548173ffffffffffffffffffffffffffffffffffffffff021916908373ffffffffffffffffffffffffffffffffffffffff16021790555060808201518160040190805190602001906115b1929190611ec2565b5060a08201518160050190805190602001906115ce929190611ec2565b5060c0820151816006015560e08201518160070190805190602001906115f5929190611ec2565b506101008201518160080160006101000a81548160ff0219169083600681111561161b57fe5b02179055506101208201518160080160016101000a81548173ffffffffffffffffffffffffffffffffffffffff021916908373ffffffffffffffffffffffffffffffffffffffff160217905550610140820151816009019080519060200190611685929190611ec2565b5061016082015181600a0160006101000a81548173ffffffffffffffffffffffffffffffffffffffff021916908373ffffffffffffffffffffffffffffffffffffffff16021790555090505060006006600088815260200190815260200160002060080160006101000a81548160ff0219169083600681111561170457fe5b02179055506001600554016005819055507ff4c831f694b059beafd1bf38b880eabbe99d54f6115b77318894606f4aedebc6866040518082815260200191505060405180910390a1505050505050565b61175d81611b99565b50565b806000600681111561176e57fe5b6006600083815260200190815260200160002060080160009054906101000a900460ff16600681111561179d57fe5b146117a757600080fd5b6117b0336119dc565b6117b957600080fd5b60016006600084815260200190815260200160002060080160006101000a81548160ff021916908360068111156117ec57fe5b02179055507f56f4050ec1982a05bbf76b27acd5be9c55b3353880a23f61eab6955fe7680b03826040518082815260200191505060405180910390a15050565b611835336119dc565b61183e57600080fd5b61184781611bf3565b50565b806002600681111561185857fe5b6006600083815260200190815260200160002060080160009054906101000a900460ff16600681111561188757fe5b1461189157600080fd5b61189a336119dc565b6118a357600080fd5b3373ffffffffffffffffffffffffffffffffffffffff166006600084815260200190815260200160002060030160009054906101000a900473ffffffffffffffffffffffffffffffffffffffff1673ffffffffffffffffffffffffffffffffffffffff161461195d576040517f08c379a0000000000000000000000000000000000000000000000000000000008152600401808060200182810382526029815260200180611f686029913960400191505060405180910390fd5b60036006600084815260200190815260200160002060080160006101000a81548160ff0219169083600681111561199057fe5b02179055507f5115fd0c176df2457e4dd6f7976f43df830ec2142b4307431278ca354ebc3c09826040518082815260200191505060405180910390a15050565b6119d981611c4d565b50565b60006119f2826000611b0790919063ffffffff16565b9050919050565b611a0d816002611ca790919063ffffffff16565b8073ffffffffffffffffffffffffffffffffffffffff167f6c713924da8f1e694559181e3497cb03c970f0f7c023d913207d0410b531741e60405160405180910390a250565b611a67816001611d5390919063ffffffff16565b8073ffffffffffffffffffffffffffffffffffffffff167f126174f6cf49c81cdb4a9214c6b8f037bef55b4ec31e4fc776cea2a1c8a88d5960405160405180910390a250565b611ac1816001611ca790919063ffffffff16565b8073ffffffffffffffffffffffffffffffffffffffff167fddbf200aa634dc3fb81cfd68583dd1040d1c751d335e1d86b631bde3e977fea860405160405180910390a250565b60008073ffffffffffffffffffffffffffffffffffffffff168273ffffffffffffffffffffffffffffffffffffffff161415611b4257600080fd5b8260000160008373ffffffffffffffffffffffffffffffffffffffff1673ffffffffffffffffffffffffffffffffffffffff16815260200190815260200160002060009054906101000a900460ff16905092915050565b611bad816000611d5390919063ffffffff16565b8073ffffffffffffffffffffffffffffffffffffffff167f61cc46fde982e84c3a6b4fcb7501e17e9d7ce1dc82f43d39c2957afdbac5e7e160405160405180910390a250565b611c07816000611ca790919063ffffffff16565b8073ffffffffffffffffffffffffffffffffffffffff167fe31dbc85815e2b6ef09d401ea334ca809c167e8314a4261643ae6fabd97f9e8760405160405180910390a250565b611c61816002611d5390919063ffffffff16565b8073ffffffffffffffffffffffffffffffffffffffff167f71eaa696f0767f21811adef17b683cfdcea929d4543129cd018806483aedc25960405160405180910390a250565b600073ffffffffffffffffffffffffffffffffffffffff168173ffffffffffffffffffffffffffffffffffffffff161415611ce157600080fd5b611ceb8282611b07565b15611cf557600080fd5b60018260000160008373ffffffffffffffffffffffffffffffffffffffff1673ffffffffffffffffffffffffffffffffffffffff16815260200190815260200160002060006101000a81548160ff0219169083151502179055505050565b600073ffffffffffffffffffffffffffffffffffffffff168173ffffffffffffffffffffffffffffffffffffffff161415611d8d57600080fd5b611d978282611b07565b611da057600080fd5b60008260000160008373ffffffffffffffffffffffffffffffffffffffff1673ffffffffffffffffffffffffffffffffffffffff16815260200190815260200160002060006101000a81548160ff0219169083151502179055505050565b6040518061018001604052806000815260200160008152602001600073ffffffffffffffffffffffffffffffffffffffff168152602001600073ffffffffffffffffffffffffffffffffffffffff1681526020016060815260200160608152602001600081526020016060815260200160006006811115611e7b57fe5b8152602001600073ffffffffffffffffffffffffffffffffffffffff16815260200160608152602001600073ffffffffffffffffffffffffffffffffffffffff1681525090565b828054600181600116156101000203166002900490600052602060002090601f016020900481019282601f10611f0357805160ff1916838001178555611f31565b82800160010185558215611f31579182015b82811115611f30578251825591602001919060010190611f15565b5b509050611f3e9190611f42565b5090565b611f6491905b80821115611f60576000816000905550600101611f48565b5090565b9056fe50726f6475636572732063616e2073686970206f6e6c79206d65646963696e6573206279207468656d4469737472696275746f72732063616e2073686970206f6e6c792061727469636c657320746f20636c69656e7473a265627a7a723158207fa14ccfe9a71d33d9e2adb9feed37df4b52f9b30466a7a79ac2360b78ca014464736f6c63430005100032",
  "source": "pragma solidity ^0.5.0;\n\nimport \"../pharmaAccesControl/Roles.sol\";\nimport \"../pharmaAccesControl/RoleDistributor.sol\";\nimport \"../pharmaAccesControl/RoleProducer.sol\";\nimport \"../pharmaAccesControl/RoleClient.sol\";\nimport \"../pharmaCore/Ownable.sol\";\n\n// Define a contract 'Supplychain'\n\ncontract PharmaSupplyChain is RoleProducer, RoleDistributor, RoleClient {\n\n  // Define 'owner'\n  address payable owner;\n\n  // Define a variable called 'upc' for Universal Product Code (UPC)\n  uint  upc;\n\n  // Define a variable called 'sku' for Stock Keeping Unit (SKU)\n  uint  sku;\n\n  // Define a public mapping 'articles' that maps the UPC to an article.\n \n  mapping (uint => Article) articles;\n\n  // Define a public mapping 'medicinesHistory' that maps the UPC to an array of TxHash, \n  // that track its journey through the supply chain -- to be sent from DApp.\n // mapping (uint => string[]) medicinesHistory;\n  mapping (uint => string[]) articlesHistory;\n  \n  // PROJET:\n  enum State2\n  {\n    ArticleBatchProducedByProducer, // 0\n    ArticleBatchSoldByProducer, // 1\n    ArticleBatchAcquiredByDistributor, // 2\n    ArticleBatchSentByProducer, // 3\n    ArticleBatchReceivedByDistributor, // 4\n    ArticleBatchPreparedByDistributor, // 5\n    ArticlePreparedByDistributor, // 6\n    ArticleSoldByDistributor, // 7\n    ArticleAcquiredByClient, // 8\n    ArticleSentByDistributor, // 9\n    ArticleReceivedByClient // 10\n  }\n\n// PROJET SIMPLIFI:\n  enum State\n  {\n    ArticleProducedByProducer, // 0\n    ArticleOnSaleByProducer, // 1\n    ArticleOrderedByDistributor, // 2\n    ArticleReceivedByDistributor, // 3\n    ArticleOnSaleByDistributor, // 4\n    ArticleOrderedByClient, // 5\n    ArticleReceivedByClient // 6\n  }\n\n\n  State constant defaultState = State.ArticleProducedByProducer;\n\n \n  // Define a struct 'Article' with the following fields PROJET:\n  struct Article{\n    uint    sku;  // Stock Keeping Unit (SKU)\n    uint    upc; // Universal Product Code (UPC), generated by the Manufacturer, goes on the package, can be verified by the Patient\n    address ownerID;  // Metamask-Ethereum address of the current owner as the medicine moves through 8 stages\n    address producerID; // Metamask-Ethereum address of the Manufacturer\n    string  producerName; // Manufacturer Name\n    string  producerInformation;  // Manufacturer Information\n    uint    articleID;  // Product ID potentially a combination of upc + sku\n    string  articleNotes; // Product Notes\n    State  articleState;  // Product State as represented in the enum above\n    address distributorID;  // Metamask-Ethereum address of the Distributor\n    string distributorName; // distributor Name\n    address clientID; // Metamask-Ethereum address of the Patient\n  }\n\n  // Define 8 events with the same 8 state values and accept 'upc' as input argument\n  event Made(uint upc);\n  event Packed(uint upc);\n  event ForSale(uint upc);\n  event Sold(uint upc);\n  event Shipped(uint upc);\n  event Received(uint upc);\n  event Purchased(uint upc);\n\n// PROJET:\n// Define 11 events with the same 11 state values and accept 'upc' as input argument\n  event ArticleProducedByProducer(uint upc);\n  event ArticleBatchSold(uint upc);\n  event ArticleBatchAcquired(uint upc);\n  event ArticleBatchSent(uint upc);\n  event ArticleBatchReceived(uint upc);\n  event ArticleBatchPrepared(uint upc);\n  event ArticlePrepared(uint upc);\n  event ArticleSold(uint upc);\n  event ArticleAcquired(uint upc);\n  event ArticleSent(uint upc);\n  event ArticleReceived(uint upc);\n \n\n // PROJET SIMPLIFI:\n // Define 7 events with the same 7 state values and accept 'upc' as input argument\n  \n  event evArticleProducedByProducer(uint upc); // 0\n  event evArticleOnSaleByProducer(uint upc); // 1\n  event evArticleOrderedByDistributor(uint upc); // 2\n  event evArticleSentToDistributor(uint upc); // 3\n  event evArticleOnSaleByDistributor(uint upc); // 4\n  event evArticleOrderedByClient(uint upc); // 5\n  event evArticleReceivedByClient(uint upc); // 6 (a verifier)\n\n// adapter les modifiers\n\n  // Define a modifier that checks to see if msg.sender == owner of the contract\n  modifier onlyOwner() {\n    require(msg.sender == owner);\n    _;\n  }\n\n  // Define a modifier that verifies the Caller\n  modifier verifyCaller (address _address) {\n    require(msg.sender == _address); \n    _;\n  }\n\n  // Define a modifier that checks if the paid amount is sufficient to cover the price\n//  modifier paidEnough(uint _price) { \n//    require(msg.value >= _price); \n//    _;\n//  }\n  \n  // Define a modifier that checks the price and refunds the remaining balance\n//  modifier checkValue(uint _upc) {\n//    _;\n//    uint _price = medicines[_upc].medicinePrice;\n//    uint amountToReturn = msg.value - _price;\n//    medicines[_upc].patientID.transfer(amountToReturn);\n//  }\n\n  // PROJET:\n\n  // PROJET SIMPLIFI:\n    // Define a modifier that checks if an article.state  a upc is produced\n  modifier articleProducedByProducer(uint _upc) {\n    require(articles[_upc].articleState == State.ArticleProducedByProducer);\n    _;\n  }\n\n  // PROJET:\n // PROJET SIMPLIFI: ArticleOnSaleByProducer\n  // Define a modifier that checks if an article.state or a article of a upc is On Sale By Producer\n  \n  modifier articleOnSaleByProducer(uint _upc) {\n    require(articles[_upc].articleState == State.ArticleOnSaleByProducer);\n    _;\n  }\n\n\n  \n // PROJET:\n // PROJET SIMPLIFI: ArticleOrderedByDistributor\n  // Define a modifier that checks if an article.state of a upc is Ordered By Distributor\n  \n  modifier articleOrderedByDistributor(uint _upc) {\n    require(articles[_upc].articleState == State.ArticleOrderedByDistributor);\n    _;\n  }\n\n  // PROJET:\n // PROJET SIMPLIFI: ArticleReceivedByDistributor\n   // Define a modifier that checks if an article.state of a upc is Received By Distributor\n  \n  modifier articleReceivedByDistributor(uint _upc) {\n    require(articles[_upc].articleState == State.ArticleReceivedByDistributor);\n    _;\n  }\n\n // PROJET:\n // PROJET SIMPLIFI: ArticleSoldByDistributor\n  // Define a modifier that checks if an article.state of a upc is Sold By Distributor\n\n  modifier articleOnSaleByDistributor(uint _upc) {\n    require(articles[_upc].articleState == State.ArticleOnSaleByDistributor);\n    _;\n  }\n\n // PROJET:\n // PROJET SIMPLIFI: ArticleOrderedByClient\n\n  // Define a modifier that checks if an article.state of a upc is Ordered By Client\n  modifier articleOrderedByClient(uint _upc) {\n    require(articles[_upc].articleState == State.ArticleOrderedByClient);\n    _;\n  }\n\n\n // PROJET:\n // PROJET SIMPLIFI: ArticleReceivedByClient\n \n // Define a modifier that checks if an article.state of a upc is Received By Client\n  modifier articleReceivedByClient(uint _upc) {\n    require(articles[_upc].articleState == State.ArticleReceivedByClient);\n    _;\n  }\n\n  // PROJET:\n // PROJET SIMPLIFI:  constructor ok\n  // In the constructor set 'owner' to the address that instantiated the contract\n  // and set 'sku' to 1\n  // and set 'upc' to 1\n  constructor() public payable {\n    owner = msg.sender;\n    sku = 0;\n    upc = 0;\n  }\n\n// PROJET:\n // PROJET SIMPLIFI: contract terminator ok\n  // Define a function 'kill' if required\n  function kill() public {\n    if (msg.sender == owner) {\n      selfdestruct(owner);\n    }\n  }\n\n\n // PROJET: FUNCTIONS\n // PROJET SIMPLIFI:\n \n \n// PROJET:\n // PROJET SIMPLIFI: produceArticleByProducer()  // 1\n  function produceArticleByProducer(uint _upc, address _producerID, string memory _producerName, string memory _producerInformation,  string memory _articleNotes) public\n\n  onlyProducer\n\n  {\n    // Add the new article as part of articles\n    Article memory temp_article = Article({\n      sku:sku + 1,\n      upc:_upc,\n      ownerID:_producerID,\n      producerID:_producerID,\n      producerName:_producerName,\n      producerInformation:_producerInformation,\n      articleID:sku+_upc,\n      articleNotes:_articleNotes,\n      articleState:State.ArticleProducedByProducer,\n      distributorID:0x0000000000000000000000000000000000000000,\n      distributorName:'0',      \n      clientID:0x0000000000000000000000000000000000000000\n      });\n      \n    articles[_upc] = temp_article;\n    articles[_upc].articleState = State.ArticleProducedByProducer;\n\n    // Increment sku\n    sku = sku + 1;\n    // Emit the appropriate event\n\n    emit evArticleProducedByProducer(_upc);\n  }\n // PROJET:\n // PROJET SIMPLIFI:\n \n  // Define a function 'packMedicine' that allows a manufacturer to mark an medicine 'Packed'\n  function sellArticleByProducer(uint _upc) public \n  // Call modifier to check if upc has passed previous supply chain stage\n  articleProducedByProducer(_upc)\n  // Call modifier to verify caller of this function\n  onlyProducer\n  {\n    // Update the appropriate fields\n    articles[_upc].articleState = State.ArticleOnSaleByProducer;\n\n    // Emit the appropriate event\n    emit evArticleOnSaleByProducer(_upc);\n  }\n\n\n // PROJET:\n // PROJET SIMPLIFI: sellArticleByProducer()   // 2\n \n // PROJET:\n // PROJET SIMPLIFI:  orderArticleByDistributor()\n\n  // Define a function ' orderArticleByDistributor' that allows the disributor to mark an article  ordered ?\n  //\n  \n  //function orderArticleByDistributor(uint _upc, address _distributorID, string _distributorName) public \n  \n  function orderArticleByDistributor(uint _upc) public \n    // Call modifier to check if upc has passed previous supply chain stage\n    articleOnSaleByProducer(_upc)\n    \n    //limit to distributers , no end consumers are allowed to buy from producer.\n    onlyDistributor\n    {\n\n      // Update the appropriate fields - ownerID, distributorID, articleState\n     // articles[_upc].ownerID = _distributorID;\n      //articles[_upc].distributorID = _distributorID; //address\n      //articles[_upc].distributorName = _distributorName;\n      articles[_upc].articleState = State.ArticleOrderedByDistributor;\n     \n      // emit the appropriate event\n      emit evArticleOrderedByDistributor(_upc);\n    }\n\n // PROJET:\n // PROJET SIMPLIFI: receiveArticleByDistributor()  // 3\n\n // PROJET:\n // PROJET SIMPLIFI:\n \n  // Define a function 'shipMedicine' that allows the distributor to mark an medicine 'Shipped'\n  // Use the above modifers to check if the medicine is sold\n  function sendArticleToDistributor(uint _upc) public \n    // Call modifier to check if upc has passed previous supply chain stage\n    articleOrderedByDistributor(_upc)\n    // Call modifier to verify caller of this function\n    onlyProducer\n    {\n      //check if the factory is the one making this medicine.\n      require(articles[_upc].producerID == msg.sender,\"Producers can ship only medicines by them\");\n      // Update the appropriate fields\n      articles[_upc].articleState = State.ArticleReceivedByDistributor;\n      // Emit the appropriate event\n      emit evArticleSentToDistributor(_upc);\n    }\n\n// PROJET:\n // PROJET SIMPLIFI: receiveArticleBatchByDistributor() // 4\n\n // PROJET:\n // PROJET SIMPLIFI:\n// Define a function 'sellArticleByDistributor' that allows a distributor to mark an article 'ArticleOnSaleByDistributor'\n  function sellArticleByDistributor(uint _upc) public \n  // Call modifier to check if upc has passed previous supply chain stage\n  articleReceivedByDistributor(_upc)\n  // Call modifier to verify caller of this function\n  onlyDistributor\n  {\n    // Update the appropriate fields\n    articles[_upc].articleState = State.ArticleOnSaleByDistributor;\n\n    // Emit the appropriate event\n    emit evArticleOnSaleByDistributor(_upc);\n  }\n\n\n \n  // Define a function 'receiveMedicine' that allows the pharmacist to mark an medicine 'Received'\n  \n\n// PROJET:\n // PROJET SIMPLIFI: sellArticleByDistributor() // 5\n\n // PROJET:\n // PROJET SIMPLIFI:\n \n  \n // PROJET:\n // PROJET SIMPLIFI:\n\n // PROJET:\n // PROJET SIMPLIFI: orderArticleByClient() // 6\n // Define a function ' orderArticleByClient' that allows the disributor to mark an article  ordered ?\n  //\n  \n  function orderArticleByClient(uint _upc, address _clientID) public \n    // Call modifier to check if upc has passed previous supply chain stage\n    articleOnSaleByDistributor(_upc)\n    \n    //limit to distributers , no end consumers are allowed to buy from producer.\n    onlyClient\n    {\n\n      // Update the appropriate fields - ownerID, distributorID, articleState\n      articles[_upc].ownerID = _clientID;\n      articles[_upc].clientID = _clientID;\n      articles[_upc].articleState = State.ArticleOrderedByClient;\n     \n      // emit the appropriate event\n      emit evArticleOrderedByClient(_upc);\n    }\n\n \n \n   function sendArticleToClient(uint _upc) public \n    // Call modifier to check if upc has passed previous supply chain stage\n    articleOrderedByClient(_upc)\n    // Call modifier to verify caller of this function\n    onlyDistributor\n    {\n      //check if the distributor is the one making this medicine.\n      require(articles[_upc].distributorID == msg.sender,\"Distributors can ship only articles to clients\");\n      // Update the appropriate fields\n      articles[_upc].articleState = State.ArticleReceivedByClient;\n      // Emit the appropriate event\n      emit evArticleReceivedByClient(_upc);\n    }\n\n\n // PROJET:\n // PROJET SIMPLIFI:\n\n // PROJET:\n // PROJET SIMPLIFI: receiveArticleByClient()  // 7\n\n // Recupration information\n // PROJET SIMPLIFI: articleTraceProducer() articleTraceDistributor() articleTraceClient() remplacerait les fetch\n \n  // Define a function 'fetchMedicineBufferOne' that fetches the data\n  function articleTraceProducer(uint _upc) public view returns \n  (\n    uint    articleSKU,\n    uint    articleUPC,\n    address ownerID,\n    address producerID,\n    string memory producerName,\n    string memory producerInformation\n    //string  originFactoryLatitude\n    // producerName; // Manufacturer Name\n    //string  producerInformation\n    // string  originFactoryLongitude\n    ) \n  {\n  // Assign values to the 7 parameters\n  \n\n  return \n  (\n    articles[_upc].sku,\n    articles[_upc].upc,\n    articles[_upc].ownerID,\n    articles[_upc].producerID,\n    articles[_upc].producerName,\n    articles[_upc].producerInformation\n    //medicines[_upc].originFactoryLatitude\n    // medicines[_upc].originFactoryLongitude\n    );\n}\n\n // PROJET:\n // PROJET SIMPLIFI:\n \n  // Define a function 'fetcharticleBufferTwo' that fetches the data\n  function articleTraceDistributor(uint _upc) public view returns \n  (\n    uint    articleSKU,\n    uint    articleUPC,\n    uint    articleID,\n    \n    string memory articleNotes,\n    State    articleState,\n    address distributorID,\n    address clientID\n    ) \n  {\n    // Assign values to the 7 parameters\n//string  producerName; // Manufacturer Name\n//string  producerInformation;  // Manufacturer Information\n//uint    articleID;  // Product ID potentially a combination of upc + sku\n//string  articleNotes; // Product Notes\n//State  articleState;  // Product State as represented in the enum above\n//address distributorID;  // Metamask-Ethereum address of the Distributor\n//string distributorName; // distributor Name\n//address clientID; // Metamask-Ethereum address of the Patient\n  \n    \n // PROJET:\n \n \n    return \n    (\n      articles[_upc].sku,\n      articles[_upc].upc,\n      articles[_upc].articleID,\n      articles[_upc].articleNotes,\n      articles[_upc].articleState,\n      articles[_upc].distributorID,\n      articles[_upc].clientID\n      );\n  }\n\n  // Define a function 'fetcharticleBufferThree' that fetches the data\n  function fetcharticleBufferThree(uint _upc) public view returns \n  (\n    uint    articleSKU,\n    uint    articleUPC,\n    uint    articleID\n    ) \n  {\n    // Assign values to the 3 parameters\n\n    \n    return \n    (\n      articles[_upc].sku,\n      articles[_upc].upc,\n      articles[_upc].articleID\n      \n      );\n  }\n\n\n}",
  "sourcePath": "C:\\xampp\\htdocs\\Pharma\\contracts\\pharmaBase\\PharmaSupplyChain.sol",
  "compiler": {
    "name": "solc",
    "version": "0.5.16+commit.9c3226ce.Emscripten.clang"
  },
  "schemaVersion": "3.4.2",
  "updatedAt": "2021-08-12T23:01:19.695Z",
  "devdoc": {
    "methods": {}
  },
  "userdoc": {
    "methods": {}
  }
}