{
  "contractName": "RoleProducer",
  "abi": [
    {
      "inputs": [],
      "payable": false,
      "stateMutability": "nonpayable",
      "type": "constructor"
    },
    {
      "anonymous": false,
      "inputs": [
        {
          "indexed": true,
          "internalType": "address",
          "name": "account",
          "type": "address"
        }
      ],
      "name": "producerAdded",
      "type": "event"
    },
    {
      "anonymous": false,
      "inputs": [
        {
          "indexed": true,
          "internalType": "address",
          "name": "account",
          "type": "address"
        }
      ],
      "name": "producerRemoved",
      "type": "event"
    },
    {
      "constant": true,
      "inputs": [
        {
          "internalType": "address",
          "name": "account",
          "type": "address"
        }
      ],
      "name": "isProducer",
      "outputs": [
        {
          "internalType": "bool",
          "name": "",
          "type": "bool"
        }
      ],
      "payable": false,
      "stateMutability": "view",
      "type": "function"
    },
    {
      "constant": false,
      "inputs": [
        {
          "internalType": "address",
          "name": "account",
          "type": "address"
        }
      ],
      "name": "addProducer",
      "outputs": [],
      "payable": false,
      "stateMutability": "nonpayable",
      "type": "function"
    },
    {
      "constant": false,
      "inputs": [
        {
          "internalType": "address",
          "name": "account",
          "type": "address"
        }
      ],
      "name": "renounceProducer",
      "outputs": [],
      "payable": false,
      "stateMutability": "nonpayable",
      "type": "function"
    }
  ],
  "bytecode": "0x608060405234801561001057600080fd5b506100203361002560201b60201c565b6101c7565b61003d81600061008360201b6103621790919060201c565b8073ffffffffffffffffffffffffffffffffffffffff167fe31dbc85815e2b6ef09d401ea334ca809c167e8314a4261643ae6fabd97f9e8760405160405180910390a250565b600073ffffffffffffffffffffffffffffffffffffffff168173ffffffffffffffffffffffffffffffffffffffff1614156100bd57600080fd5b6100cd828261013560201b60201c565b156100d757600080fd5b60018260000160008373ffffffffffffffffffffffffffffffffffffffff1673ffffffffffffffffffffffffffffffffffffffff16815260200190815260200160002060006101000a81548160ff0219169083151502179055505050565b60008073ffffffffffffffffffffffffffffffffffffffff168273ffffffffffffffffffffffffffffffffffffffff16141561017057600080fd5b8260000160008373ffffffffffffffffffffffffffffffffffffffff1673ffffffffffffffffffffffffffffffffffffffff16815260200190815260200160002060009054906101000a900460ff16905092915050565b610443806101d66000396000f3fe608060405234801561001057600080fd5b50600436106100415760003560e01c8063bc2d118a14610046578063ddf801661461008a578063f5521022146100ce575b600080fd5b6100886004803603602081101561005c57600080fd5b81019080803573ffffffffffffffffffffffffffffffffffffffff16906020019092919050505061012a565b005b6100cc600480360360208110156100a057600080fd5b81019080803573ffffffffffffffffffffffffffffffffffffffff169060200190929190505050610136565b005b610110600480360360208110156100e457600080fd5b81019080803573ffffffffffffffffffffffffffffffffffffffff169060200190929190505050610154565b604051808215151515815260200191505060405180910390f35b61013381610171565b50565b61013f33610154565b61014857600080fd5b610151816101cb565b50565b600061016a82600061022590919063ffffffff16565b9050919050565b6101858160006102b790919063ffffffff16565b8073ffffffffffffffffffffffffffffffffffffffff167f61cc46fde982e84c3a6b4fcb7501e17e9d7ce1dc82f43d39c2957afdbac5e7e160405160405180910390a250565b6101df81600061036290919063ffffffff16565b8073ffffffffffffffffffffffffffffffffffffffff167fe31dbc85815e2b6ef09d401ea334ca809c167e8314a4261643ae6fabd97f9e8760405160405180910390a250565b60008073ffffffffffffffffffffffffffffffffffffffff168273ffffffffffffffffffffffffffffffffffffffff16141561026057600080fd5b8260000160008373ffffffffffffffffffffffffffffffffffffffff1673ffffffffffffffffffffffffffffffffffffffff16815260200190815260200160002060009054906101000a900460ff16905092915050565b600073ffffffffffffffffffffffffffffffffffffffff168173ffffffffffffffffffffffffffffffffffffffff1614156102f157600080fd5b6102fb8282610225565b61030457600080fd5b60008260000160008373ffffffffffffffffffffffffffffffffffffffff1673ffffffffffffffffffffffffffffffffffffffff16815260200190815260200160002060006101000a81548160ff0219169083151502179055505050565b600073ffffffffffffffffffffffffffffffffffffffff168173ffffffffffffffffffffffffffffffffffffffff16141561039c57600080fd5b6103a68282610225565b156103b057600080fd5b60018260000160008373ffffffffffffffffffffffffffffffffffffffff1673ffffffffffffffffffffffffffffffffffffffff16815260200190815260200160002060006101000a81548160ff021916908315150217905550505056fea265627a7a72315820d301f6420d45b7e06508c492869f889d67585012c3daecf04b9597d2b04fd65064736f6c63430005100032",
  "source": "// SPDX-License-Identifier: GPL-3.0\r\n\r\npragma solidity >=0.5.0;\r\n\r\n// Import the library 'Roles'\r\nimport \"./Roles.sol\";\r\n\r\n// Define a contract 'producerRole' to manage this role - add, remove, check\r\ncontract RoleProducer {\r\n  using Roles for Roles.Role;\r\n  // Define 2 events, one for Adding, and other for Removing\r\n  event producerAdded(address indexed account);\r\n  event producerRemoved(address indexed account);\r\n\r\n  // Define a struct 'producers' by inheriting from 'Roles' library, struct Role\r\n  Roles.Role private producers;\r\n  // In the constructor make the address that deploys this contract the 1st producer\r\n  constructor() public {\r\n    //_addConstructor(msg.sender);\r\n    _addProducer(msg.sender);\r\n  }\r\n\r\n  // Define a modifier that checks to see if msg.sender has the appropriate role\r\n  modifier onlyProducer() {\r\n    require(isProducer(msg.sender));\r\n    _;\r\n  }\r\n\r\n  // Define a function 'isProducer' to check this role\r\n  function isProducer(address account) public view returns (bool) {\r\n    return producers.has(account);\r\n  }\r\n\r\n  // Define a function 'addproducer' that adds this role\r\n  function addProducer(address account) public onlyProducer {\r\n    _addProducer(account);\r\n  }\r\n\r\n  // Define a function 'renounceProducer' to renounce this role\r\n  function renounceProducer(address account) public {\r\n    _removeProducer(account);\r\n  }\r\n\r\n  // Define an internal function '_addproducer' to add this role, called by 'addProducer'\r\n  function _addProducer(address account) internal {\r\n    producers.add(account);\r\n    emit producerAdded(account);\r\n  }\r\n\r\n  // Define an internal function '_removeproducer' to remove this role, called by 'removeProducer'\r\n  function _removeProducer(address account) internal {\r\n    producers.remove(account);\r\n    emit producerRemoved(account);\r\n  }\r\n}",
  "sourcePath": "C:\\xampp\\htdocs\\Pharma\\contracts\\pharmaAccesControl\\RoleProducer.sol",
  "compiler": {
    "name": "solc",
    "version": "0.5.16+commit.9c3226ce.Emscripten.clang"
  },
  "schemaVersion": "3.4.2",
  "updatedAt": "2021-08-13T00:08:32.944Z",
  "devdoc": {
    "methods": {}
  },
  "userdoc": {
    "methods": {}
  }
}