{
  "contractName": "RoleClient",
  "abi": [
    {
      "inputs": [],
      "payable": false,
      "stateMutability": "nonpayable",
      "type": "constructor"
    },
    {
      "anonymous": false,
      "inputs": [
        {
          "indexed": true,
          "internalType": "address",
          "name": "account",
          "type": "address"
        }
      ],
      "name": "ClientAdded",
      "type": "event"
    },
    {
      "anonymous": false,
      "inputs": [
        {
          "indexed": true,
          "internalType": "address",
          "name": "account",
          "type": "address"
        }
      ],
      "name": "ClientRemoved",
      "type": "event"
    },
    {
      "constant": true,
      "inputs": [
        {
          "internalType": "address",
          "name": "account",
          "type": "address"
        }
      ],
      "name": "isClient",
      "outputs": [
        {
          "internalType": "bool",
          "name": "",
          "type": "bool"
        }
      ],
      "payable": false,
      "stateMutability": "view",
      "type": "function"
    },
    {
      "constant": false,
      "inputs": [
        {
          "internalType": "address",
          "name": "account",
          "type": "address"
        }
      ],
      "name": "addClient",
      "outputs": [],
      "payable": false,
      "stateMutability": "nonpayable",
      "type": "function"
    },
    {
      "constant": false,
      "inputs": [
        {
          "internalType": "address",
          "name": "account",
          "type": "address"
        }
      ],
      "name": "renounceClient",
      "outputs": [],
      "payable": false,
      "stateMutability": "nonpayable",
      "type": "function"
    }
  ],
  "bytecode": "0x608060405234801561001057600080fd5b506100203361002560201b60201c565b6101c7565b61003d81600061008360201b6102b71790919060201c565b8073ffffffffffffffffffffffffffffffffffffffff167f6c713924da8f1e694559181e3497cb03c970f0f7c023d913207d0410b531741e60405160405180910390a250565b600073ffffffffffffffffffffffffffffffffffffffff168173ffffffffffffffffffffffffffffffffffffffff1614156100bd57600080fd5b6100cd828261013560201b60201c565b156100d757600080fd5b60018260000160008373ffffffffffffffffffffffffffffffffffffffff1673ffffffffffffffffffffffffffffffffffffffff16815260200190815260200160002060006101000a81548160ff0219169083151502179055505050565b60008073ffffffffffffffffffffffffffffffffffffffff168273ffffffffffffffffffffffffffffffffffffffff16141561017057600080fd5b8260000160008373ffffffffffffffffffffffffffffffffffffffff1673ffffffffffffffffffffffffffffffffffffffff16815260200190815260200160002060009054906101000a900460ff16905092915050565b610443806101d66000396000f3fe608060405234801561001057600080fd5b50600436106100415760003560e01c806343928cfd1461004657806384b7964f1461008a578063eee2d2c3146100e6575b600080fd5b6100886004803603602081101561005c57600080fd5b81019080803573ffffffffffffffffffffffffffffffffffffffff16906020019092919050505061012a565b005b6100cc600480360360208110156100a057600080fd5b81019080803573ffffffffffffffffffffffffffffffffffffffff169060200190929190505050610148565b604051808215151515815260200191505060405180910390f35b610128600480360360208110156100fc57600080fd5b81019080803573ffffffffffffffffffffffffffffffffffffffff169060200190929190505050610165565b005b61013333610148565b61013c57600080fd5b61014581610171565b50565b600061015e8260006101cb90919063ffffffff16565b9050919050565b61016e8161025d565b50565b6101858160006102b790919063ffffffff16565b8073ffffffffffffffffffffffffffffffffffffffff167f6c713924da8f1e694559181e3497cb03c970f0f7c023d913207d0410b531741e60405160405180910390a250565b60008073ffffffffffffffffffffffffffffffffffffffff168273ffffffffffffffffffffffffffffffffffffffff16141561020657600080fd5b8260000160008373ffffffffffffffffffffffffffffffffffffffff1673ffffffffffffffffffffffffffffffffffffffff16815260200190815260200160002060009054906101000a900460ff16905092915050565b61027181600061036390919063ffffffff16565b8073ffffffffffffffffffffffffffffffffffffffff167f71eaa696f0767f21811adef17b683cfdcea929d4543129cd018806483aedc25960405160405180910390a250565b600073ffffffffffffffffffffffffffffffffffffffff168173ffffffffffffffffffffffffffffffffffffffff1614156102f157600080fd5b6102fb82826101cb565b1561030557600080fd5b60018260000160008373ffffffffffffffffffffffffffffffffffffffff1673ffffffffffffffffffffffffffffffffffffffff16815260200190815260200160002060006101000a81548160ff0219169083151502179055505050565b600073ffffffffffffffffffffffffffffffffffffffff168173ffffffffffffffffffffffffffffffffffffffff16141561039d57600080fd5b6103a782826101cb565b6103b057600080fd5b60008260000160008373ffffffffffffffffffffffffffffffffffffffff1673ffffffffffffffffffffffffffffffffffffffff16815260200190815260200160002060006101000a81548160ff021916908315150217905550505056fea265627a7a723158209dd74ffe5189a857aac787e8bbfed32429a26bd3a9237346af79935bb6dd920064736f6c63430005100032",
  "source": "// SPDX-License-Identifier: GPL-3.0\npragma solidity >=0.5.0;\n\n// Import the library 'Roles'\nimport \"./Roles.sol\";\n\n// Define a contract 'ConsumerRole' to manage this role - add, remove, check\ncontract RoleClient {\n  using Roles for Roles.Role;\n  // Define 2 events, one for Adding, and other for Removing\n  event ClientAdded(address indexed account);\n  event ClientRemoved(address indexed account);\n\n  // Define a struct 'clients' by inheriting from 'Roles' library, struct Role\n  Roles.Role private clients;\n  // In the constructor make the address that deploys this contract the 1st client\n  constructor() public {\n    //_addConstructor(msg.sender);\n    _addClient(msg.sender);\n  }\n\n  // Define a modifier that checks to see if msg.sender has the appropriate role\n  modifier onlyClient() {\n    require(isClient(msg.sender));\n    _;\n  }\n\n  // Define a function 'isClient' to check this role\n  function isClient(address account) public view returns (bool) {\n    return clients.has(account);\n  }\n\n  // Define a function 'addClient' that adds this role\n  function addClient(address account) public onlyClient {\n    _addClient(account);\n  }\n\n  // Define a function 'renounceClient' to renounce this role\n  function renounceClient(address account) public {\n    _removeClient(account);\n  }\n\n  // Define an internal function '_addConsumer' to add this role, called by 'addConsumer'\n  function _addClient(address account) internal {\n    clients.add(account);\n    emit ClientAdded(account);\n  }\n\n  // Define an internal function '_removeClient' to remove this role, called by 'removeConsumer'\n  function _removeClient(address account) internal {\n    clients.remove(account);\n    emit ClientRemoved(account);\n  }\n}",
  "sourcePath": "C:\\xampp\\htdocs\\Pharma\\contracts\\pharmaAccesControl\\RoleClient.sol",
  "compiler": {
    "name": "solc",
    "version": "0.5.16+commit.9c3226ce.Emscripten.clang"
  },
  "schemaVersion": "3.4.2",
  "updatedAt": "2021-08-13T00:08:32.927Z",
  "devdoc": {
    "methods": {}
  },
  "userdoc": {
    "methods": {}
  }
}